{
  "contractName": "TodoList",
  "abi": [
    {
      "anonymous": false,
      "inputs": [
        {
          "indexed": false,
          "internalType": "uint256",
          "name": "taskId",
          "type": "uint256"
        },
        {
          "indexed": false,
          "internalType": "string",
          "name": "name",
          "type": "string"
        },
        {
          "indexed": false,
          "internalType": "string",
          "name": "description",
          "type": "string"
        }
      ],
      "name": "newTask",
      "type": "event"
    },
    {
      "anonymous": false,
      "inputs": [
        {
          "indexed": false,
          "internalType": "uint256",
          "name": "_taskId",
          "type": "uint256"
        },
        {
          "indexed": false,
          "internalType": "bool",
          "name": "_isComplete",
          "type": "bool"
        }
      ],
      "name": "taskActioned",
      "type": "event"
    },
    {
      "constant": true,
      "inputs": [
        {
          "internalType": "address",
          "name": "",
          "type": "address"
        }
      ],
      "name": "ownerTaskCount",
      "outputs": [
        {
          "internalType": "uint256",
          "name": "",
          "type": "uint256"
        }
      ],
      "payable": false,
      "stateMutability": "view",
      "type": "function"
    },
    {
      "constant": true,
      "inputs": [
        {
          "internalType": "uint256",
          "name": "",
          "type": "uint256"
        }
      ],
      "name": "taskList",
      "outputs": [
        {
          "internalType": "string",
          "name": "name",
          "type": "string"
        },
        {
          "internalType": "string",
          "name": "description",
          "type": "string"
        },
        {
          "internalType": "bool",
          "name": "isComplete",
          "type": "bool"
        }
      ],
      "payable": false,
      "stateMutability": "view",
      "type": "function"
    },
    {
      "constant": true,
      "inputs": [
        {
          "internalType": "uint256",
          "name": "",
          "type": "uint256"
        }
      ],
      "name": "taskToOwner",
      "outputs": [
        {
          "internalType": "address",
          "name": "",
          "type": "address"
        }
      ],
      "payable": false,
      "stateMutability": "view",
      "type": "function"
    },
    {
      "constant": false,
      "inputs": [
        {
          "internalType": "string",
          "name": "_name",
          "type": "string"
        },
        {
          "internalType": "string",
          "name": "_description",
          "type": "string"
        }
      ],
      "name": "createTask",
      "outputs": [],
      "payable": false,
      "stateMutability": "nonpayable",
      "type": "function"
    },
    {
      "constant": false,
      "inputs": [
        {
          "internalType": "uint256",
          "name": "_taskId",
          "type": "uint256"
        },
        {
          "internalType": "bool",
          "name": "_isComplete",
          "type": "bool"
        }
      ],
      "name": "actionTask",
      "outputs": [],
      "payable": false,
      "stateMutability": "nonpayable",
      "type": "function"
    },
    {
      "constant": true,
      "inputs": [
        {
          "internalType": "address",
          "name": "_owner",
          "type": "address"
        }
      ],
      "name": "getTasksByOwner",
      "outputs": [
        {
          "internalType": "uint256[]",
          "name": "",
          "type": "uint256[]"
        }
      ],
      "payable": false,
      "stateMutability": "view",
      "type": "function"
    }
  ],
  "bytecode": "0x608060405234801561001057600080fd5b50610b55806100206000396000f3fe608060405234801561001057600080fd5b50600436106100625760003560e01c8063292a4585146100675780632a1c52a5146101355780636641c6c414610253578063dc4683e7146102c1578063eea3f96014610319578063f0f39ce414610353575b600080fd5b6101336004803603604081101561007d57600080fd5b810190808035906020019064010000000081111561009a57600080fd5b8201836020820111156100ac57600080fd5b803590602001918460018302840111640100000000831117156100ce57600080fd5b9091929391929390803590602001906401000000008111156100ef57600080fd5b82018360208201111561010157600080fd5b8035906020019184600183028401116401000000008311171561012357600080fd5b90919293919293905050506103ec565b005b6101616004803603602081101561014b57600080fd5b81019080803590602001909291905050506106a7565b60405180806020018060200184151515158152602001838103835286818151815260200191508051906020019080838360005b838110156101af578082015181840152602081019050610194565b50505050905090810190601f1680156101dc5780820380516001836020036101000a031916815260200191505b50838103825285818151815260200191508051906020019080838360005b838110156102155780820151818401526020810190506101fa565b50505050905090810190601f1680156102425780820380516001836020036101000a031916815260200191505b509550505050505060405180910390f35b61027f6004803603602081101561026957600080fd5b810190808035906020019092919050505061081b565b604051808273ffffffffffffffffffffffffffffffffffffffff1673ffffffffffffffffffffffffffffffffffffffff16815260200191505060405180910390f35b610303600480360360208110156102d757600080fd5b81019080803573ffffffffffffffffffffffffffffffffffffffff16906020019092919050505061084e565b6040518082815260200191505060405180910390f35b6103516004803603604081101561032f57600080fd5b8101908080359060200190929190803515159060200190929190505050610866565b005b6103956004803603602081101561036957600080fd5b81019080803573ffffffffffffffffffffffffffffffffffffffff169060200190929190505050610950565b6040518080602001828103825283818151815260200191508051906020019060200280838360005b838110156103d85780820151818401526020810190506103bd565b505050509050019250505060405180910390f35b6000604051806060016040528086868080601f016020809104026020016040519081016040528093929190818152602001838380828437600081840152601f19601f82011690508083019250505050505050815260200184848080601f016020809104026020016040519081016040528093929190818152602001838380828437600081840152601f19601f820116905080830192505050505050508152602001600015158152509080600181540180825580915050906001820390600052602060002090600302016000909192909190915060008201518160000190805190602001906104db929190610a7b565b5060208201518160010190805190602001906104f8929190610a7b565b5060408201518160020160006101000a81548160ff02191690831515021790555050505060006001600080549050039050336001600083815260200190815260200160002060006101000a81548173ffffffffffffffffffffffffffffffffffffffff021916908373ffffffffffffffffffffffffffffffffffffffff1602179055506001600260003373ffffffffffffffffffffffffffffffffffffffff1673ffffffffffffffffffffffffffffffffffffffff1681526020019081526020016000205401600260003373ffffffffffffffffffffffffffffffffffffffff1673ffffffffffffffffffffffffffffffffffffffff168152602001908152602001600020819055507ffbfd9d31928e559dcbc7807ea412d2465d44d29b826c13091f8907e28364ceea81868686866040518086815260200180602001806020018381038352878782818152602001925080828437600081840152601f19601f8201169050808301925050508381038252858582818152602001925080828437600081840152601f19601f82011690508083019250505097505050505050505060405180910390a15050505050565b600081815481106106b457fe5b9060005260206000209060030201600091509050806000018054600181600116156101000203166002900480601f0160208091040260200160405190810160405280929190818152602001828054600181600116156101000203166002900480156107605780601f1061073557610100808354040283529160200191610760565b820191906000526020600020905b81548152906001019060200180831161074357829003601f168201915b505050505090806001018054600181600116156101000203166002900480601f0160208091040260200160405190810160405280929190818152602001828054600181600116156101000203166002900480156107fe5780601f106107d3576101008083540402835291602001916107fe565b820191906000526020600020905b8154815290600101906020018083116107e157829003601f168201915b5050505050908060020160009054906101000a900460ff16905083565b60016020528060005260406000206000915054906101000a900473ffffffffffffffffffffffffffffffffffffffff1681565b60026020528060005260406000206000915090505481565b816001600082815260200190815260200160002060009054906101000a900473ffffffffffffffffffffffffffffffffffffffff1673ffffffffffffffffffffffffffffffffffffffff163373ffffffffffffffffffffffffffffffffffffffff16146108d257600080fd5b81600084815481106108e057fe5b906000526020600020906003020160020160006101000a81548160ff0219169083151502179055507f12f01bc3a61f295ffcb2555da3d00aa85257152c00c917ac26dc22724f653185838360405180838152602001821515151581526020019250505060405180910390a1505050565b606080600260008473ffffffffffffffffffffffffffffffffffffffff1673ffffffffffffffffffffffffffffffffffffffff168152602001908152602001600020546040519080825280602002602001820160405280156109c15781602001602082028038833980820191505090505b509050600080905060008090505b600080549050811015610a70578473ffffffffffffffffffffffffffffffffffffffff166001600083815260200190815260200160002060009054906101000a900473ffffffffffffffffffffffffffffffffffffffff1673ffffffffffffffffffffffffffffffffffffffff161415610a655780838381518110610a5057fe5b60200260200101818152505081806001019250505b6001810190506109cf565b508192505050919050565b828054600181600116156101000203166002900490600052602060002090601f016020900481019282601f10610abc57805160ff1916838001178555610aea565b82800160010185558215610aea579182015b82811115610ae9578251825591602001919060010190610ace565b5b509050610af79190610afb565b5090565b610b1d91905b80821115610b19576000816000905550600101610b01565b5090565b9056fea265627a7a7231582013b7852b2250a73d7244d981fe6370524e6db8c301e438a2cadeb382e3e4a7eb64736f6c63430005100032",
  "source": "pragma solidity >=0.5.0;\r\n\r\ncontract TodoList {\r\n\tstruct Task {\r\n\t\tstring name;\r\n\t\tstring description;\r\n\t\tbool isComplete;\r\n\t}\r\n\r\n\r\n\tevent newTask(uint taskId, string name, string description);\r\n\tevent taskActioned(uint _taskId, bool _isComplete);\r\n\tmodifier isTaskOwner(uint _taskId){\r\n\t\trequire(msg.sender == taskToOwner[_taskId]); // make sure that the task is owned by sender\r\n\t\t_;\t\r\n\t}\r\n\r\n\tTask[] public taskList; \r\n\tmapping (uint => address) public taskToOwner;\r\n\tmapping (address => uint) public ownerTaskCount;\r\n\r\n\tfunction createTask(string calldata _name, string calldata _description) external {\r\n\t\ttaskList.push(Task(_name, _description, false));\r\n\t\tuint taskId = taskList.length - 1;\r\n\t\ttaskToOwner[taskId] = msg.sender;\r\n\t\townerTaskCount[msg.sender] = ownerTaskCount[msg.sender] + 1; // TODO fix this so it wont overflow SafeMath or new solidity version that works like this by default\r\n\t\temit newTask(taskId, _name, _description);\r\n\t}\r\n\r\n\r\n\tfunction actionTask(uint _taskId, bool _isComplete) external isTaskOwner(_taskId) {\r\n\t\ttaskList[_taskId].isComplete = _isComplete;\r\n\t\temit taskActioned(_taskId, _isComplete);\r\n\t}\r\n\r\n\r\n\tfunction getTasksByOwner(address _owner) external view returns(uint[] memory){\r\n\t\tuint[] memory taskResults = new uint[](ownerTaskCount[_owner]);\r\n\t\tuint counter = 0;\r\n\r\n\t\tfor(uint i = 0; i < taskList.length; i += 1){\r\n\t\t\tif(taskToOwner[i] == _owner){\r\n\t\t\t\ttaskResults[counter] = i;\r\n\t\t\t\tcounter++;\r\n\t\t\t}\r\n\t\t}\r\n\r\n\t\treturn taskResults;\r\n\t}\r\n\r\n\r\n\r\n}",
  "sourcePath": "C:/Users/BigChungus/Documents/ethdev/todoList/contracts/TodoList.sol",
  "compiler": {
    "name": "solc",
    "version": "0.5.16+commit.9c3226ce.Emscripten.clang"
  },
  "schemaVersion": "3.3.3",
  "updatedAt": "2021-01-17T11:07:24.673Z",
  "devdoc": {
    "methods": {}
  },
  "userdoc": {
    "methods": {}
  }
}